:100000000C94F5030C9421040C9421040C94210409
:100010000C9421040C9421040C9421040C942104CC
:100020000C9421040C9421040C9421040C942104BC
:100030000C9421040C9421040C9421040C942104AC
:100040000C9421040C9421040C9421040C9421049C
:100050000C9421040C9421040C9421040C94351666
:100060000C9421040C945C180C943C190C942104FD
:100070000C9421040C9421040C9421040C9421046C
:100080000C9421040C9421040C9421040C9421045C
:100090000C9494180C947B190C9421040C94210456
:1000A0000C9421040C9421040C9421040C9421043C
:1000B0000C9421040C9421040C9421040C9421042C
:1000C0000C9421040C9421040C9421040C94CC185D
:1000D0000C94BA190C9421040C9404190C94F91979
:1000E0000C94210400002100240027002A002D0088
:1000F0003000330001010000040107010A01000083
:100100002200250028002B002E00310034000201BF
:100110000000050108010B0100002000230026005B
:1001200029002C002F00320000010000030106010D
:10013000090105050505070508080808020202026D
:100140000A0A080804040404010101010101010173
:100150000303030303030303040707070C0C0C0C3E
:100160000C0C0C0C02020202060606060606060627
:100170000B0B0B0B0B0B0B0B0102102020080810B4
:100180002040102040800201020108040201010207
:1001900004081020408080402010080402018004E0
:1001A000020180402010080402010804020101023B
:1001B0000408102040800102040810204080000044
:1001C000090A02080B0C0D070603040100000000D9
:1001D000000000000000000000000000000000001F
:1001E0000000000000000000000011100F000000DF
:1001F00000000000000000000000000000000000FF
:100200000000000000000000003E5B4F5B3E3E6BC4
:100210004F6B3E1C3E7C3E1C183C7E3C181C577DA0
:10022000571C1C5E7F5E1C00183C1800FFE7C3E7EC
:10023000FF0018241800FFE7DBE7FF30483A060EFE
:100240002629792926407F050507407F05253F5A45
:100250003CE73C5A7F3E1C1C08081C1C3E7F1422B5
:100260007F22145F5F005F5F06097F017F00668960
:10027000956A606060606094A2FFA29408047E04A6
:100280000810207E201008082A1C08081C2A0808CC
:100290001E101010100C1E0C1E0C30383E3830068C
:1002A0000E3E0E06000000000000005F0000000788
:1002B000000700147F147F14242A7F2A12231308B6
:1002C000646236495620500008070300001C224192
:1002D000000041221C002A1C7F1C2A08083E080836
:1002E00000807030000808080808000060600020E6
:1002F000100804023E5149453E00427F40007249C9
:100300004949462141494D331814127F102745456C
:1003100045393C4A49493141211109073649494982
:1003200036464949291E00001400000040340000F0
:100330000008142241141414141400412214080259
:10034000015909063E415D594E7C1211127C7F49CC
:100350004949363E414141227F4141413E7F494921
:1003600049417F090909013E414151737F0808084D
:100370007F00417F41002040413F017F081422411E
:100380007F404040407F021C027F7F0408107F3E78
:100390004141413E7F090909063E4151215E7F09E5
:1003A000192946264949493203017F01033F40404C
:1003B000403F1F2040201F3F4038403F6314081437
:1003C0006303047804036159494D43007F4141416F
:1003D0000204081020004141417F04020102044050
:1003E00040404040000307080020545478407F28D4
:1003F0004444383844444428384444287F385454CA
:10040000541800087E090218A4A49C787F080404EC
:100410007800447D40002040403D007F102844008B
:1004200000417F40007C047804787C08040478381C
:1004300044444438FC1824241818242418FC7C084C
:10044000040408485454542404043F44243C4040C9
:10045000207C1C2040201C3C4030403C442810287C
:10046000444C9090907C4464544C440008364100C5
:100470000000770000004136080002010204023C3F
:100480002623263C1EA1A161123A4040207A38540E
:100490005455592155557941215454784121555489
:1004A000784020545579400C1E52721239555555DA
:1004B00059395454545939555454580000457C41C5
:1004C0000002457D420001457C40F0292429F0F0DE
:1004D000282528F07C545545002054547C547C0A2F
:1004E000097F4932494949323248484832324A48FC
:1004F00048303A4141217A3A42402078009DA0A0FC
:100500007D39444444393D4040403D3C24FF24244F
:10051000487E4943662B2FFC2F2BFF0929F620C06C
:10052000887E090320545479410000447D413048BD
:10053000484A32384040227A007A0A0A727D0D1900
:10054000317D2629292F28262929292630484D4062
:1005500020380808080808080808382F10C8ACBA5E
:100560002F102834FA00007B000008142A142222DD
:10057000142A1408AA005500AAAA55AA55AA0000D0
:1005800000FF00101010FF00141414FF001010FFE3
:1005900000FF1010F010F0141414FC001414F700F5
:1005A000FF0000FF00FF1414F404FC141417101FC4
:1005B00010101F101F1414141F00101010F0000052
:1005C00000001F101010101F10101010F01000006D
:1005D00000FF101010101010101010FF100000007D
:1005E000FF140000FF00FF00001F10170000FC04B4
:1005F000F414141710171414F404F40000FF00F797
:1006000014141414141414F700F7141414171410F9
:10061000101F101F141414F4141010F010F0000028
:100620001F101F0000001F14000000FC140000F049
:1006300010F01010FF10FF141414FF141010101FEE
:1006400000000000F010FFFFFFFFFFF0F0F0F0F0FF
:10065000FFFFFF0000000000FFFF0F0F0F0F0F381C
:10066000444438447C2A2A3E147E02020606027E56
:10067000027E0263554941633844443C04407E2075
:100680001E2006027E020299A5E7A5991C2A492A86
:100690001C4C7201724C304A4D4D30304878483015
:1006A000BC625A463D3E494949007E0101017E2A0D
:1006B0002A2A2A2A44445F444440514A4440404440
:1006C0004A51400000FF0103E080FF000008086B72
:1006D0006B083612362436060F090F06000018186C
:1006E0000000001010003040FF0101001F01011E3A
:1006F00000191D1712003C3C3C3C00000000000F9C
:100700000180961180FFB103012C2DB203012C2D25
:10071000B306012C2D012C2DB40107C003A20284C5
:10072000C101C5C2020A00C3028A2AC4028AEEC5F8
:10073000010E20003601C83A0105022A0400020019
:10074000812B04000100A0022A040000007F2B047A
:100750000000009F04E010021C07123732292D29E7
:10076000252B3900010310E110031D07062E2C294B
:100770002D2E2E373F0000021013800A29806412AC
:100780000180321180FF3A81050AB1830006030A15
:10079000360108B6021502B40100C08202700AC117
:1007A0000105C2020102C5823C380AFC021115E0B3
:1007B0001009160920211B131917151E2B040502F9
:1007C0000EE1900B14081E221D181E1B1A242B0666
:1007D00006020F0A2A04000200812B040002008195
:1007E00013800A2980FF9809C91B11241FBECFEF6F
:1007F000D1E2DEBFCDBF00E00CBF14E0A0E0B2E06C
:10080000EEEFFDE400E00BBF02C007900D92A633AF
:10081000B107D9F717E0A6E3B4E001C01D92AB3DE4
:10082000B107E1F717E0CAEED7E004C02297FE0156
:100830000E94F926C63ED107C9F70E94840A0C948B
:1008400085260C940000EF92FF920F931F93CF9395
:10085000DF9382E060E00E944617EE24FF248701C8
:10086000C0E0D0E082E00E940116AA2797FDA09583
:10087000BA2F81709070A070B0700C2E04C0880FD9
:10088000991FAA1FBB1F0A94D2F7E80EF91E0A1F70
:100890001B1F62E370E080E090E00E948B162196BF
:1008A000C032D105F9F6B701C801DF91CF911F9190
:1008B0000F91FF90EF9008950F931F93CF93DF93C5
:1008C0001092EE041092ED040E94AE148C018FEE93
:1008D00094E060E070E00E9439248FEE94E06FEFC6
:1008E0007FEF40E050E00E9478228FEE94E061E0DC
:1008F0000E947E228FEE94E060E070E04CE350E0D6
:100900000E946C220230110509F498C003301105D1
:100910002CF40130110509F042C109C00330110562
:1009200009F4E1C00430110509F039C102C1809118
:100930003205C4E6D0E09E01281B310980912C05C8
:1009400090E00F96AC01249FC001259F900D349F2D
:10095000900D112464E670E00E94C2268091ED049F
:100960009091EE04860F971F9093EE048093ED0410
:100970008FEE94E060E072E00E943C1E6091ED0416
:100980007091EE048FEE94E04AE050E00E94291E40
:100990008FEE94E06AE072E00E943F1E0E94230402
:1009A00025E630E040E050E00E94D52610912F056A
:1009B000160F62E370E080E090E00E948B160E94C8
:1009C000230425E630E040E050E00E94D5268091E7
:1009D0003305860F181708F4DCC080913205C81B58
:1009E000D10980912C0590E00A969C01C29FC0011C
:1009F000C39F900DD29F900D112464E670E00E9479
:100A0000C2268B018091ED049091EE04860F971F12
:100A10009093EE048093ED048FEE94E063E172E036
:100A20000E943C1E8FEE94E0B8014AE050E00E9424
:100A3000291E8FEE94E063E272E0A9C08091320536
:100A400024E630E0281B310980912C0590E00A96BD
:100A5000AC01249FC001259F900D349F900D11245F
:100A600064E670E00E94C2268091ED049091EE044D
:100A7000860F971F9093EE048093ED048FEE94E021
:100A800060E072E00E943C1E6091ED047091EE0403
:100A90008FEE94E04AE050E00E94291E8FEE94E031
:100AA0006AE072E00E943F1E68EE73E080E090E032
:100AB0000E948B168FEE94E061E372E00E943C1E70
:100AC00060912C05862F90E08E35910514F064E638
:100AD00001C0695F60932C058FEE94E04AE050E01E
:100AE0000E94CB1D56C00E94230425E630E040E062
:100AF00050E00E94D52680912F058617A8F05091CE
:100B00002E0540912D05852F90E00B96242F30E087
:100B10008217930714F4452F445F40932E058FEE00
:100B200094E067E472E033C08FEE94E06AE572E02F
:100B30002EC08091320524E630E0281B31098091D7
:100B40002C0590E04496AC01249FC001259F900D98
:100B5000349F900D112464E670E00E94C2267093C9
:100B6000EE046093ED048FEE94E060E072E00E948A
:100B70003C1E6091ED047091EE048FEE94E04AE02B
:100B800050E00E94291E8FEE94E06AE072E00E941D
:100B90003F1E68EE73E080E090E00E948B1660EDEF
:100BA00077E080E090E00E948B16DF91CF911F915B
:100BB0000F9108950F931F93CF93DF931092EE043C
:100BC0001092ED040E94AE148C018FEE94E060E070
:100BD00070E00E9439248FEE94E06FEF7FEF40E0E9
:100BE00050E00E9478228FEE94E061E00E947E2225
:100BF0008FEE94E060E070E04CE350E00E946C22E5
:100C00000230110509F498C0033011052CF40130AD
:100C1000110509F03EC109C00330110509F4E4C013
:100C20000430110509F035C1F8C080913105C4E6E2
:100C3000D0E09E01281B310980912C0590E00F9691
:100C4000AC01249FC001259F900D349F900D11246D
:100C500064E670E00E94C2268091ED049091EE045B
:100C6000860F971F9093EE048093ED048FEE94E02F
:100C700060E072E00E943C1E6091ED047091EE0411
:100C80008FEE94E04AE050E00E94291E8FEE94E03F
:100C90006AE072E00E943F1E0E94230425E630E0D5
:100CA00040E050E00E94D52610912F05160F62E318
:100CB00070E080E090E00E948B160E94230425E6FD
:100CC00030E040E050E00E94D52680913305860F49
:100CD000181708F4D8C080913205C81BD10980913B
:100CE0002C0590E00A969C01C29FC001C39F900D05
:100CF000D29F900D112464E670E00E94C2268B0101
:100D00008091ED049091EE04860F971F9093EE046E
:100D10008093ED048FEE94E063E172E00E943C1E4C
:100D20008FEE94E0B8014AE050E00E94291E8FEE59
:100D300094E066E672E0A5C00E94230425E630E058
:100D400040E050E00E94D52610912F05160F62E377
:100D500070E080E090E00E948B160E94230425E65C
:100D600030E040E050E00E94D52680913305860FA8
:100D70001817A8F18091310524E630E0281B3109CD
:100D800080912C0590E04E96AC01249FC001259FD8
:100D9000900D349F900D112464E670E00E94C226ED
:100DA0008091ED049091EE04860F971F9093EE04CE
:100DB0008093ED048FEE94E060E072E00E943C1EB0
:100DC0006091ED047091EE048FEE94E04AE050E003
:100DD0000E94291E8FEE94E066E772E052C08FEE0B
:100DE00094E068E872E04DC08FEE94E061E372E059
:100DF0000E943C1E60912C05862F90E0893591055C
:100E000014F064E601C0645F60932C058FEE94E0FB
:100E10004AE050E00E94CB1D36C08091310524E6A7
:100E200030E0281B310980912C0590E04496AC01FC
:100E3000249FC001259F900D349F900D112464E6DE
:100E400070E00E94C2268091ED049091EE04860F1E
:100E5000971F9093EE048093ED048FEE94E060E092
:100E600072E00E943C1E6091ED047091EE048FEEE2
:100E700094E04AE050E00E94291E8FEE94E06AE080
:100E800072E00E943F1E68EE73E080E090E00E94F6
:100E90008B1660ED77E080E090E00E948B16DF918A
:100EA000CF911F910F9108950F931F93CF93DF93CD
:100EB0001092EE041092ED040E94AE148C018FEE9D
:100EC00094E060E070E00E9439248FEE94E06FEFD0
:100ED0007FEF40E050E00E9478228FEE94E061E0E6
:100EE0000E947E228FEE94E060E070E04CE350E0E0
:100EF0000E946C220230110569F1033011052CF4B7
:100F00000130110509F041C109C00330110509F490
:100F1000A8C00430110509F038C1FBC020912C0590
:100F2000822F90E08B35910514F084E602C0822F69
:100F3000865F80932C058FEE94E061E372E00E945F
:100F40003C1E8FEE94E060912C054AE050E00E9438
:100F5000CB1D15C180913105C4E6D0E09E01281B50
:100F6000310980912C0590E00A96AC01249FC001C4
:100F7000259F900D349F900D112464E670E00E942F
:100F8000C2268091ED049091EE04860F971F9093F6
:100F9000EE048093ED048FEE94E060E072E00E9436
:100FA0003C1E6091ED047091EE048FEE94E04AE0F7
:100FB00050E00E94291E8FEE94E06AE072E00E94E9
:100FC0003F1E0E94230425E630E040E050E00E94EE
:100FD000D52610912F05160F62E370E080E090E0B7
:100FE0000E948B160E94230425E630E040E050E08A
:100FF0000E94D52680913305860F181708F4BFC0CC
:1010000080913205C81BD10980912C0590E00F9684
:101010009C01C29FC001C39F900DD29F900D1124CF
:1010200064E670E00E94C2268B018091ED049091ED
:10103000EE04860F971F9093EE048093ED048FEEDD
:1010400094E063E172E00E943C1E8FEE94E0B801F0
:101050004AE050E00E94291E8FEE94E06EE972E0B3
:101060008CC00E94230425E630E040E050E00E945E
:10107000D52610912F05160F62E370E080E090E016
:101080000E948B160E94230425E630E040E050E0E9
:101090000E94D52680913305860F1817A8F18091FC
:1010A000310524E630E0281B310980912C0590E0C1
:1010B0004E96AC01249FC001259F900D349F900D4A
:1010C000112464E670E00E94C2268091ED049091A4
:1010D000EE04860F971F9093EE048093ED048FEE3D
:1010E00094E060E072E00E943C1E6091ED0470911B
:1010F000EE048FEE94E04AE050E00E94291E8FEE4D
:1011000094E066E772E039C08FEE94E068E872E040
:1011100034C08091310524E630E0281B31098091EC
:101120002C0590E00F96AC01249FC001259F900DE7
:10113000349F900D112464E670E00E94C2268091D5
:10114000ED049091EE04860F971F9093EE04809328
:10115000ED048FEE94E060E072E00E943C1E60912E
:10116000ED047091EE048FEE94E04AE050E00E94AE
:10117000291E8FEE94E061EB72E00E943F1E68EE44
:1011800073E080E090E00E948B1660ED77E080E0F5
:1011900090E00E948B16DF91CF911F910F910895DF
:1011A0001F9310E080913604882309F05FC080917E
:1011B0002905823039F0833041F0813041F40E94BA
:1011C000540705C00E94DA0502C00E945C0468EE64
:1011D00073E080E090E00E948B168091ED040E9405
:1011E000DE0A0E94701481E00E94A00B882321F087
:1011F0000E94D90A8093340580913405882309F42C
:1012000092C081E00E94A00B882319F00E94D90AA5
:10121000182F80912E05282F30E0211B310937FF30
:1012200002C080E009C080912D05482F50E0C9011F
:10123000421753070CF4CA0180932E050E947014C4
:1012400080912E05882311F41092300568EE73E02A
:1012500080E090E00E948B16809130050E94DE0AAB
:1012600080913005882309F09DCF5FC081E00E9406
:10127000A00B882319F00E94D90A182F80912E05FF
:10128000282F30E0211B310937FF02C080E009C060
:1012900080912D05482F50E0C901421753070CF4E7
:1012A000CA0180932E050E94701480912E05882318
:1012B00011F41092300568EE73E080E090E00E9437
:1012C0008B16809130050E94DE0A809130058823BC
:1012D00061F180912905823039F0833041F081300D
:1012E00041F40E94540705C00E94DA0502C00E9422
:1012F0005C0468EE73E080E090E00E948B168091C1
:10130000ED040E94DE0A0E94701481E00E94A00B8E
:10131000882321F00E94D90A8093340580913405F6
:10132000882309F03FCF81E001C080E01F9108953C
:101330000F931F930FEE14E0C80166E047E028E02A
:101340000E942626C80160E04FEF2FEF0E94CC24B8
:1013500090931C0580931B05C8016FEF4CEC29E9A5
:101360000E94CC2490931E0580931D05C80160EC5B
:1013700040EC20EC0E94CC249093200580931F0524
:10138000C80162ED49E62EE10E94CC24909322052B
:1013900080932105C8016FEF47ED20E00E94CC2427
:1013A0009093240580932305C80164E940E023ED70
:1013B0000E94CC249093260580932505C80160E007
:1013C0004FEB2FEF0E94CC249093280580932705A4
:1013D0001F910F9108950E94771510922C0581E0BE
:1013E0008093300590912905923089F09330D9F09F
:1013F000913059F587E380932A058FE080932B0580
:101400008DE780932D0580932E0588E217C082E337
:1014100080932A0580932B0585E580932D05809385
:101420002E0587E30BC083E280932A058BE480932B
:101430002B0580932D0580932E0585E580932F0540
:1014400080913604882349F404C081E090E00E9432
:101450008526892F0E94650B03C0892F0E94290BC6
:101460008093350508950E94E4168FE597E040E8E3
:1014700055E260E070E00E94381A8CEB97E040E89B
:1014800055E260E070E00E94381A8FE597E00E9414
:101490007E1B8CEB97E00E947E1B80E00E94011671
:1014A0009093E8038093E7038DE060E00E94461785
:1014B00089E060E00E94461789E061E00E94F91728
:1014C0008FEE94E062E00E94F8258FEE94E060E0F9
:1014D00070E00E9439248DE00E942C18892B19F4A9
:1014E0001092360408C08DE00E942C18019719F460
:1014F00081E08093360489E060E00E94461789E02D
:1015000061E00E94F91708951F930E94330A0E9418
:10151000EB090E9455110E94011160E177E280E021
:1015200090E00E948B160E94701468EB7BE080E0D4
:1015300090E00E948B160E94D008182F8FEE94E046
:1015400060E070E00E9439248FEE94E061E00E9438
:101550007E228FEE94E062E00E947222113069F4E4
:101560008FEE94E064E170E04CE350E00E946C2266
:101570008FEE94E06BEB72E00EC0112371F48FEEEE
:1015800094E06FE070E04CE350E00E946C228FEE3C
:1015900094E064EC72E00E943C1E8CEB97E00E94A9
:1015A000BE1A8FE597E00E94BE1A80E090E01F917E
:1015B00008958CEB97E00E94551B0895682F8CEBE3
:1015C00097E00E94901B08958F929F92AF92BF92D6
:1015D000CF92DF92EF92FF921F93CF93DF93182F5A
:1015E0004A015B010E947D166B017C01C80CD91C6D
:1015F000EA1CFB1CC12FD0E08CEB97E00E94241B5F
:101600008C179D0784F4B7FC07C00E947D166C15EB
:101610007D058E059F0538F461E070E080E090E084
:101620000E948B16E9CF8CEB97E00E94241B20E0F0
:101630008C179D070CF021E0822FDF91CF911F9135
:10164000FF90EF90DF90CF90BF90AF909F908F90E2
:1016500008950F931F93CF93DF93082FC0E0D0E03E
:1016600081E048EE53E060E070E00E94E40A8823E5
:10167000A9F38CEB97E00E94551B2097D1F483349B
:10168000910571F781E048EE53E060E070E00E9460
:10169000E40A882329F30E94D90A182F8CEB97E0DB
:1016A00061E40E94901B802F0E94DE0AC1E0D0E01E
:1016B000D7CFC130D105A1F68134910589F6812FAC
:1016C000DF91CF911F910F9108951F93CF93DF93D7
:1016D000182FC0E0D0E0209751F48CEB97E063E442
:1016E0000E94901B812F0E94DE0AC1E0D0E081E0C1
:1016F00048EE53E060E070E00E94E40A882369F35A
:101700008CEB97E00E94551BC130D10521F7813445
:10171000910569F781E048EE53E060E070E00E94D7
:10172000E40A882321F30E94D90A182F8CEB97E052
:1017300061E40E94901B812FDF91CF911F9108954A
:10174000CF93DF93C82FD0E006C061E070E080E067
:1017500090E00E948B168CEB97E00E94241B8C1764
:101760009D079CF38CEB97E00E94241B20E08C17D4
:101770009D070CF021E0822FDF91CF910895CF9348
:10178000DF93EC018FEE94E06FEF7FEF40E050E0ED
:101790000E9478224091EB035091EC0393E0440FB8
:1017A000551F9A95E1F78FEE94E060E070E00E949B
:1017B0006C22209781F42091EB033091EC0384E1BB
:1017C00090E0289FB001299F700D389F700D112463
:1017D000675C7B4F12C0C130D10599F42091EB03B7
:1017E0003091EC0384E190E0289FB001299F700DB7
:1017F000389F700D112467577B4F8FEE94E00E9445
:101800003C1E8FEE94E060E070E04FEF5FEF0E94CF
:1018100078224091E9035091EA0383E0440F551F79
:101820008A95E1F78FEE94E060E070E00E946C2210
:10183000209781F42091E9033091EA0384E190E05C
:10184000289FB001299F700D389F700D1124675C8F
:101850007B4F11C0219799F42091E9033091EA035D
:1018600084E190E0289FB001299F700D389F700D92
:10187000112467577B4F8FEE94E00E943C1EDF914E
:10188000CF910895AF92BF92CF92DF92EF92FF92E5
:101890000F931F93CF93DF93182F092F5B017A01CA
:1018A0008FEE94E060E070E00E943924212F302F09
:1018B000C9018C01C0E0D0E024E1C22ED12C3EC091
:1018C0008FEE94E060E070E0AE010E946C228091A7
:1018D000E9039091EA030817190739F48FEE94E0B1
:1018E00060E070E04FEF5FEF06C08FEE94E06FEFC7
:1018F0007FEF40E050E00E947822E114F10451F4BF
:101900000C9DB0010D9D700D1C9D700D1124675C28
:101910007B4F0DC081E0E816F10469F40C9DB00125
:101920000D9D700D1C9D700D112467577B4F8FEE20
:1019300094E00E943C1E0F5F1F4F2896A016B10630
:101940000CF0BECFDF91CF911F910F91FF90EF90E0
:10195000DF90CF90BF90AF900895CF92DF92EF923B
:10196000FF920F931F93AFEECA2EA4E0DA2EE09001
:101970001D05F0901E05C60161E270E04AE650E0E8
:1019800025E330E00AE610E00E949D1FE0901D056F
:10199000F0901E05C60165E370E04AE650E029E4D8
:1019A00030E00E949D1FE0901D05F0901E05C601CD
:1019B00065E370E045E550E025E330E002E810E043
:1019C0000E949D1FE0901D05F0901E05C60165E375
:1019D00070E042E850E02BE230E006E910E00E94BF
:1019E0009D1FE0901D05F0901E05C60165E370E0A7
:1019F00042E850E02FE330E00E949D1F00911D055A
:101A000010911E05C60165E370E04BE450E02AE04A
:101A100030E00E94701EC60165E370E04BE350E0C9
:101A20002AE330E002E310E0E12CF8EFFF2E0E9401
:101A30009D1FC60166E370E04AE350E02BE330E00F
:101A400001E310E00E949D1FC6016BE270E040E4DC
:101A500050E02FE330E000E410E0E0EEEE2EE7E0AF
:101A6000FE2E0E949D1FC6016CE270E04FE350E025
:101A70002EE330E00FE310E00E949D1FC6016DE2EF
:101A800070E04EE350E02DE330E00EE310E00E9402
:101A90009D1FC6016EE270E04DE350E02CE330E0A4
:101AA0000DE310E00E949D1FC6016FE270E04CE361
:101AB00050E02BE330E00CE310E00E949D1FC601D4
:101AC00060E370E04BE350E02AE330E00BE310E02A
:101AD0000E949D1FC60161E370E04AE350E029E3E4
:101AE00030E00AE310E00E949D1FC60162E370E04F
:101AF00049E350E028E330E009E310E00E949D1F35
:101B0000C60163E370E048E350E027E330E008E318
:101B100010E00E949D1FC60164E370E047E350E0BF
:101B200026E330E007E310E00E949D1FC60165E355
:101B300070E046E350E025E330E006E310E00E9469
:101B40009D1FE0902105F0902205C60168E270E03B
:101B50004AE550E028E230E002E810E00E949D1FD4
:101B6000E0902105F0902205C60168E270E04AE5A8
:101B700050E024E130E00EE610E00E949D1FE0906E
:101B80002105F0902205C60164E170E04EE650E0C8
:101B900028E230E002E810E00E949D1FE0901F055F
:101BA000F0902005C60166E470E048E750E026E4C6
:101BB00030E00AE510E00E949D1FE0901F05F090C4
:101BC0002005C60167E470E04DE750E027E430E00F
:101BD0000E949D1FE0901F05F0902005C60163E460
:101BE00070E04DE750E026E430E008E710E00E94A6
:101BF0009D1FE0901F05F0902005C6016AE470E08B
:101C00004DE750E027E430E00E949D1FE0901F0563
:101C1000F0902005C60161E470E04AE550E02CE454
:101C200030E00AE510E00E949D1FE0901F05F09053
:101C30002005C60162E470E049E550E02BE430E0A5
:101C400009E510E00E949D1FE0901F05F09020051F
:101C5000C60163E470E048E550E02AE430E008E5BE
:101C600010E00E949D1FE0901F05F0902005C60126
:101C700064E470E047E550E029E430E007E510E077
:101C80000E949D1FE0901F05F0902005C60165E4AD
:101C900070E046E550E028E430E006E510E00E9400
:101CA0009D1FE0901F05F0902005C60166E470E0DE
:101CB00045E550E027E430E005E510E00E949D1F77
:101CC000C6016FEF7FEF40E050E00E947822C6012E
:101CD00060E00E947E22C60164E170E04EE150E0C7
:101CE0000E946C22C6016EEC72E00E943C1EC6018E
:101CF00060912E054AE050E00E94B91DC60167EDD3
:101D000072E00E943C1EC60160912D054AE050E041
:101D10000E94B91D1F910F91FF90EF90DF90CF901F
:101D20000895CF92DF92EF92FF920F931F931FEED1
:101D3000C12E14E0D12EE0901D05F0901E05C601C5
:101D400061E270E04AE650E025E330E00AE610E0A8
:101D50000E949D1FE0901D05F0901E05C60165E3E1
:101D600070E04AE650E029E430E00E949D1FE090D8
:101D70001D05F0901E05C60165E370E045E550E0E5
:101D800025E330E002E810E00E949D1FE0901D0571
:101D9000F0901E05C60165E370E042E850E02BE2DA
:101DA00030E006E910E00E949D1FE0901D05F090D4
:101DB0001E05C60165E370E042E850E02FE330E025
:101DC0000E949D1F00911D0510911E05C60165E32F
:101DD00070E04BE450E02AE030E00E94701EC60143
:101DE00067E070E04CE550E021E230E00CE510E007
:101DF000E12CB8EFFB2E0E949D1FC60167E070E04A
:101E00004CE550E027E030E00EE610E00E949D1F18
:101E1000C60167E070E04EE650E024E130E00DE7F7
:101E200010E00E949D1FC60161E270E04CE550E0A9
:101E300021E230E00EE610E00E949D1FC60161E243
:101E400070E04EE650E024E130E00DE710E00E9443
:101E50009D1FE0901B05F0901C05C60162E170E03B
:101E60004CE550E022E130E00AE710E00E949D1FBF
:101E7000E0901B05F0901C05C60163E170E04CE5A5
:101E800050E023E130E00BE710E00E949D1FE0905E
:101E90001B05F0901C05C60164E170E04CE550E0C4
:101EA00024E130E00CE710E00E949D1FE0901B054C
:101EB000F0901C05C60165E170E04CE550E025E1BD
:101EC00030E00BE710E00E949D1FE0901B05F090B2
:101ED0001C05C60166E170E04CE550E026E130E00B
:101EE0000AE710E00E949D1FE0901B05F0901C0582
:101EF000C60167E070E049E650E021E230E009E623
:101F000010E00E949D1FE0901B05F0901C05C6018B
:101F100067E070E04AE650E021E230E00AE610E0D7
:101F20000E949D1FE0901B05F0901C05C60167E014
:101F300070E04BE650E021E230E00BE610E00E945A
:101F40009D1FE0901B05F0901C05C60167E070E046
:101F50004CE650E021E230E00CE610E00E949D1FCC
:101F6000E0901B05F0901C05C60167E070E04DE6AF
:101F700050E021E230E00DE610E00E949D1FE0906D
:101F80001F05F0902005C6016BE270E046E450E0CA
:101F90002FE330E006E410E00E949D1FE0901F0553
:101FA000F0902005C6016CE270E045E450E02EE3BD
:101FB00030E005E410E00E949D1FE0901F05F090C6
:101FC0002005C6016DE270E044E450E02DE330E00E
:101FD00004E410E00E949D1FE0901F05F090200592
:101FE000C6016FE270E043E450E02CE330E003E42C
:101FF00010E00E949D1FE0901F05F0902005C60193
:1020000060E370E042E450E02AE330E002E410E0F4
:102010000E949D1FE0901F05F0902005C60162E31D
:1020200070E041E450E028E330E001E410E00E9479
:102030009D1FE0902105F0902205C60169E470E043
:102040004FE650E029E430E005E610E00E949D1FD5
:10205000E0902105F0902205C6016EE470E04FE6A5
:1020600050E02EE430E00E949D1FE0902105F090AA
:102070002205C60169E470E04FE650E02EE430E04E
:102080000FE610E00E949D1FE0902105F0902205D0
:10209000C60169E470E04FE650E02CE430E004E76C
:1020A00010E00E949D1FE0902105F0902205C601DE
:1020B0006EE470E04FE650E02BE430E00E949D1F9C
:1020C000E0901F05F0902005C60169E470E045E648
:1020D00050E026E430E002E610E00E949D1FE09010
:1020E0001F05F0902005C6016EE470E045E650E063
:1020F00021E530E00E949D1FE0901F05F090200533
:10210000C60166E470E042E650E029E430E00FE505
:1021100010E00E949D1FE0901F05F0902005C60171
:1021200061E570E042E650E02EE430E00E949D1F41
:10213000E0901F05F0902005C60169E470E04FE5CE
:1021400050E029E430E007E410E00E949D1FE09099
:102150001F05F0902005C6016EE470E04FE550E0E9
:102160002EE430E00E949D1FE0901F05F0902005B6
:10217000C60169E470E047E450E02BE430E002E49B
:1021800010E00E949D1FE0901F05F0902005C60101
:102190006EE470E047E450E02CE430E00E949D1FC4
:1021A000C6016FEF7FEF40E050E00E947822C60149
:1021B00060E00E947E22C60164E170E04EE150E0E2
:1021C0000E946C22C6016EEC72E00E943C1EC601A9
:1021D00060912E054AE050E00E94B91DC60167EDEE
:1021E00072E00E943C1EC60160912D054AE050E05D
:1021F0000E94B91D1F910F91FF90EF90DF90CF903B
:10220000089580913505823061F0833089F0813006
:10221000C1F487E3809331058FE08093320588E233
:102220000EC082E3809331058093320587E307C0B7
:1022300083E2809331058BE48093320585E58093BA
:10224000330581E0809334058FEE94E069ED72E010
:102250000E943C1E8FEE94E069EE72E00E943C1EEC
:102260008FEE94E0609131054AE050E00E94B91D84
:102270008FEE94E065EF72E00E943C1E8FEE94E0DA
:10228000609132054AE050E00E94B91D8FEE94E063
:1022900061E073E00E943C1E8FEE94E06091330594
:1022A0004AE050E00E94B91D08950F931F930FEE6E
:1022B00014E0C80160E070E00E943924C8016FEFAB
:1022C0007FEF40E050E00E947822C80160E070E0BB
:1022D00040E050E00E946C22C80169E073E00E9477
:1022E0003C1EC80165E173E00E943C1EC80160917C
:1022F00029054AE050E00E94B91DC80169EE72E06C
:102300000E943C1EC80160912A054AE050E00E94EC
:10231000B91DC80165EF72E00E943C1EC8016091C2
:102320002B054AE050E00E94B91DC8016BE173E043
:102330000E943C1EC80160912C054AE050E00E94BA
:10234000B91DC8016BE273E00E943C1EC801609198
:102350002D054AE050E00E94B91DC80169E373E011
:102360000E943C1EC80160912E054AE050E00E9488
:10237000B91DC80161E073E00E943C1EC801609174
:102380002F054AE050E00E94B91D1F910F9108955A
:10239000CF92DF92EF92FF920F931F93FFEECF2E1B
:1023A000F4E0DF2EE0901D05F0901E05C60161E20D
:1023B00070E04AE650E025E330E00AE610E00E94D3
:1023C0009D1FE0901D05F0901E05C60165E370E0BD
:1023D0004AE650E029E430E00E949D1FE0901D0590
:1023E000F0901E05C60165E370E045E550E025E389
:1023F00030E002E810E00E949D1FE0901D05F09083
:102400001E05C60165E370E042E850E02BE230E0D3
:1024100006E910E00E949D1FE0901D05F0901E054A
:10242000C60165E370E042E850E02FE330E00E942F
:102430009D1F00911D0510911E05C60165E370E00A
:102440004BE450E02AE030E00E94701EC6016EE0CE
:1024500070E04DE550E024E130E009E110E0EFE10B
:10246000EE2EF12C0E944920E0902305F0902405E7
:10247000C60167E170E044E650E02CE130E009E697
:1024800010E00E949D1FE0902305F0902405C601F6
:1024900067E170E044E650E022E130E00E949D1FD9
:1024A000E0902305F0902405C60162E170E049E662
:1024B00050E027E130E00EE610E00E949D1FE09022
:1024C0002305F0902405C6016CE170E049E650E078
:1024D00027E130E00E949D1FE0902105F090220549
:1024E000C60169E470E048E650E029E430E00EE718
:1024F00010E00E949D1FE0902105F0902205C6018A
:102500006EE470E048E650E02EE430E00E949D1F4B
:10251000E0902105F0902205C60169E470E04EE7E5
:1025200050E02BE430E000E810E00E949D1FE090B6
:102530002105F0902205C6016EE470E04EE750E000
:102540002CE430E00E949D1FE0902105F0902205D0
:10255000C60169E470E048E650E026E430E005E6B4
:1025600010E00E949D1FE0902105F0902205C60119
:102570006EE470E048E650E021E530E00E949D1FE7
:10258000E0902105F0902205C60166E470E045E682
:1025900050E026E430E001E510E00E949D1FE0904D
:1025A0002105F0902205C60161E570E045E650E0A6
:1025B00021E530E00E949D1F009125051091260520
:1025C000C6016BE470E04CE450E027E030E00E948C
:1025D000701E0091230510912405C6016BE470E084
:1025E0004CE450E026E030E00E94701EC6016BE42F
:1025F00070E04CE450E025E030E000E018EF0E948D
:10260000701EC6016BE470E04CE450E024E030E062
:102610000FE110E00E94701EC6016BE470E04CE414
:1026200050E023E030E00FEF1FEF0E94701EC60164
:102630006BE470E04CE450E022E030E000EE17E0A4
:102640000E94701E0091250510912605C6016BE4BD
:1026500070E04CE450E021E030E00E94701EE09019
:102660002705F0902805C60167E270E041E450E0DC
:1026700023E430E001E410E00E949D1FE090270574
:10268000F0902805C60167E270E041E450E027E2DF
:1026900030E00DE310E00E949D1FE0902705F090D0
:1026A0002805C60163E470E041E450E023E430E033
:1026B0000E949D1FE0902705F0902805C60167E263
:1026C00070E04DE350E02AE230E00E949D1FE09070
:1026D0002705F0902805C60163E470E04DE350E063
:1026E00020E430E00E949D1FE0902705F09028052F
:1026F000C6016AE270E04DE350E02AE230E009E30F
:1027000010E00E949D1FE0902705F0902805C6016B
:1027100060E470E04DE350E020E430E00E949D1F53
:10272000E0902705F0902805C6016AE270E049E3D1
:1027300050E02DE230E00E949D1FE0902705F090D0
:102740002805C60160E470E049E350E02DE330E085
:102750000E949D1FE0902705F0902805C6016DE2BC
:1027600070E049E350E02DE230E005E310E00E9424
:102770009D1FE0902705F0902805C6016DE370E0ED
:1027800049E350E02DE330E00E949D1FE0902705D3
:10279000F0902805C6016DE270E045E350E020E3CB
:1027A00030E00E949D1FE0902705F0902805C601AB
:1027B0006DE370E045E350E02AE330E00E949D1FA6
:1027C000E0902705F0902805C60160E370E045E33E
:1027D00050E020E330E001E310E00E949D1FE09014
:1027E0002705F0902805C6016AE370E045E350E054
:1027F0002AE330E00E949D1FE0902705F090280515
:10280000C60160E370E041E350E023E330E00E9462
:102810009D1FE0902705F0902805C6016AE370E04F
:1028200041E350E027E330E00E949D1FE090270540
:10283000F0902805C60163E370E041E350E023E334
:1028400030E00EE210E00E949D1FE0902705F0901E
:102850002805C60167E370E041E350E027E330E07C
:102860000E949D1FE0902705F0902805C60163E3B4
:1028700070E04EE250E027E330E00E949D1FC60169
:102880006FEF7FEF40E050E00E947822C60160E0E9
:102890000E947E22C60164E170E04EE150E00E9499
:1028A0006C22C6016EEC72E00E943C1EC601609173
:1028B0002E054AE050E00E94B91DC60167ED72E0A6
:1028C0000E943C1EC60160912D054AE050E00E9426
:1028D000B91D1F910F91FF90EF90DF90CF90089559
:1028E0008FEE94E060E070E00E9439248091290529
:1028F000823039F0833041F0813041F40E94910EF2
:1029000008950E94AD0C08950E94C8110895809109
:10291000F1030E9401162091E7033091E803821B26
:10292000930B9C01AC0197FF04C044275527481B1B
:10293000590B8091F3039091F403841795076CF47D
:1029400081E08093ED03121613061CF48093380483
:102950000895232B11F08093370408951F93CF938C
:10296000DF9380912905823011F18330B9F18130F4
:1029700009F052C089E894E06BE473E00E94882675
:102980008DE994E06DE573E00E94882681EB94E088
:1029900063E673E00E94882685EC94E06AE673E0C3
:1029A0000E94882689ED94E068E773E033C089E8E7
:1029B00094E06BE473E00E9488268DE994E06EE772
:1029C00073E00E94882681EB94E06BE873E00E943C
:1029D000882685EC94E065E973E016C089E894E008
:1029E0006BE473E00E9488268DE994E069EA73E065
:1029F0000E94882681EB94E063EB73E00E948826B6
:102A000085EC94E06EEB73E00E94882689ED94E0FB
:102A100063EA73E00E94882680E090E064E070E062
:102A200041E050E00E94420C1091EF03C4E0D0E07E
:102A30000E9487148091ED038823D9F12091E90346
:102A40003091EA033093EC032093EB038091380438
:102A5000882381F02430310539F481E090E09093AF
:102A6000EA038093E90306C02F5F3F4F3093EA03E8
:102A70002093E90380913704882389F08091E9034A
:102A80009091EA038130910529F4D093EA03C09331
:102A9000E90305C001979093EA038093E90381E07D
:102AA00090E00E94BF0B1092ED0310923704109239
:102AB0003804812F0E942C18892B91F48091E9030E
:102AC0009091EA0321E030E03093EA032093E90398
:102AD0003093EC032093EB03DF91CF911F91089586
:102AE00064E670E080E090E00E948B16A1CFFF9238
:102AF0000F931F93CF93DF9389E394E063EC73E02C
:102B00000E9488268DE494E063ED73E00E9488269D
:102B100081E694E06BED73E00E94882685E794E0FF
:102B200062EE73E00E94882680E090E063E070E04F
:102B300040E050E00E94420CF090EF0303E010E010
:102B4000C1E0D0E00E9487148091ED038823C9F191
:102B50002091E9033091EA033093EC032093EB03D7
:102B600080913804882371F02330310529F4D09303
:102B7000EA03C093E90306C02F5F3F4F3093EA0397
:102B80002093E90380913704882389F08091E90339
:102B90009091EA038130910529F41093EA030093A0
:102BA000E90305C001979093EA038093E90380E06D
:102BB00090E00E94BF0B1092ED0310923704109228
:102BC00038048F2D0E942C18892BA1F48091E903E1
:102BD0008093290581E090E09093EA038093E903D4
:102BE0009093EC038093EB03DF91CF911F910F91B2
:102BF000FF90089564E670E080E090E00E948B16FC
:102C0000A1CF382F863308F0365320917B00832FD5
:102C100086958695869590E08170907043E0880F48
:102C2000991F4A95E1F7277F282B20937B00377067
:102C30008091EE038295880F880F807C832B809390
:102C40007C0080917A00806480937A0080917A0081
:102C500086FDFCCF2091780040917900942F80E090
:102C600030E0282B392BC90108951F920F920FB61F
:102C70000F9211242F933F938F939F93AF93BF9302
:102C800080913A0590913B05A0913C05B0913D059E
:102C900030913E050196A11DB11D232F2D5F2D37CB
:102CA00020F02D570196A11DB11D20933E05809364
:102CB0003A0590933B05A0933C05B0933D05809168
:102CC000360590913705A0913805B09139050196E8
:102CD000A11DB11D8093360590933705A09338054B
:102CE000B0933905BF91AF919F918F913F912F91F3
:102CF0000F900FBE0F901F9018958FB7F8942091EA
:102D00003A0530913B0540913C0550913D058FBF00
:102D1000B901CA0108959B01AC017FB7F894809175
:102D2000360590913705A0913805B091390566B503
:102D3000A89B05C06F3F19F00196A11DB11D7FBF73
:102D4000BA2FA92F982F8827860F911DA11DB11D7D
:102D500062E0880F991FAA1FBB1F6A95D1F7BC01BB
:102D60002DC0FFB7F8948091360590913705A0915A
:102D70003805B0913905E6B5A89B05C0EF3F19F0BD
:102D80000196A11DB11DFFBFBA2FA92F982F88272B
:102D90008E0F911DA11DB11DE2E0880F991FAA1F82
:102DA000BB1FEA95D1F7861B970B885E9340C8F24C
:102DB000215030404040504068517C4F2115310532
:102DC0004105510571F60895789484B5826084BDFB
:102DD00084B5816084BD85B5826085BD85B581601F
:102DE00085BDEEE6F0E0808181608083E1E8F0E07F
:102DF0001082808182608083808181608083E0E8AE
:102E0000F0E0808181608083E1EBF0E0808184608C
:102E10008083E0EBF0E0808181608083E1E9F0E095
:102E2000808182608083808181608083E0E9F0E03E
:102E3000808181608083E1EAF0E08081826080832C
:102E4000808181608083E0EAF0E08081816080831E
:102E5000E1E2F1E080818260808380818160808313
:102E6000E0E2F1E0808181608083EAE7F0E0808148
:102E700084608083808182608083808181608083A0
:102E80008081806880831092C1000895CF93DF9382
:102E9000482F50E0CA0188589E4FFC0134914E5C87
:102EA0005E4FFA018491882369F190E0880F991FA1
:102EB000FC01EC51FF4FA591B491FC01E250FF4F92
:102EC000C591D491662351F42FB7F8948C91932F28
:102ED000909589238C93888189230BC0623061F49B
:102EE0002FB7F8948C91932F909589238C93888198
:102EF000832B88832FBF06C09FB7F8948C91832BB8
:102F00008C939FBFDF91CF910895893009F449C018
:102F10008A30A0F4843051F1853040F4823079F168
:102F2000833000F5813009F063C026C0873079F125
:102F3000883098F5863009F05BC025C08D3009F4E3
:102F400042C08E3028F48B30B1F18C30C0F52DC0EA
:102F5000803109F442C0813109F445C08F3009F055
:102F600047C037C0809180008F7703C08091800078
:102F70008F7D80938000089584B58F7702C084B5DB
:102F80008F7D84BD08958091B0008F7703C08091BC
:102F9000B0008F7D8093B0000895809190008F776E
:102FA00007C0809190008F7D03C080919000877F43
:102FB0008093900008958091A0008F7707C0809142
:102FC000A0008F7D03C08091A000877F8093A00028
:102FD0000895809120018F7703C0809120018F7D1B
:102FE00080932001089580912001877F80932001A4
:102FF0000895FF920F931F93F62E482F50E0CA01B9
:1030000082549E4FFC012491CA0188589E4FFC01B6
:1030100014914E5C5E4FFA0104910023C9F0222303
:1030200019F0822F0E948517E02FF0E0EE0FFF1FAE
:10303000E250FF4FA591B4919FB7F894FF2021F47F
:103040008C911095812302C08C91812B8C939FBF12
:103050001F910F91FF9008950F931F93482F50E0F9
:10306000CA0182549E4FFC012491CA0188589E4F88
:10307000FC0104914E5C5E4FFA011491112319F486
:1030800020E030E015C0222319F0822F0E9485171E
:10309000812F90E0880F991F885E9E4FFC01A591BB
:1030A000B4918C9120E030E0802311F021E030E0F9
:1030B000C9011F910F9108951F920F920FB60F92A1
:1030C0000BB60F9211242F933F934F938F939F939F
:1030D000EF93FF934091C60020917F0530918005CA
:1030E0002F5F3F4F2F733070809181059091820543
:1030F0002817390759F0E0917F05F0918005E15CD0
:10310000FA4F40833093800520937F05FF91EF9124
:103110009F918F914F913F912F910F900BBE0F90E8
:103120000FBE0F901F9018951F920F920FB60F921F
:103130000BB60F9211242F933F934F938F939F932E
:10314000EF93FF934091CE0020910706309108063F
:103150002F5F3F4F2F7330708091090690910A06C0
:103160002817390759F0E0910706F0910806E9534E
:10317000FA4F40833093080620930706FF91EF91A2
:103180009F918F914F913F912F910F900BBE0F9078
:103190000FBE0F901F9018951F920F920FB60F92AF
:1031A0000BB60F9211242F933F934F938F939F93BE
:1031B000EF93FF934091D60020918F0630919006B7
:1031C0002F5F3F4F2F733070809191069091920640
:1031D0002817390759F0E0918F06F0919006E15BCE
:1031E000F94F40833093900620938F06FF91EF9123
:1031F0009F918F914F913F912F910F900BBE0F9008
:103200000FBE0F901F9018951F920F920FB60F923E
:103210000BB60F9211242F933F934F938F939F934D
:10322000EF93FF93409136012091170730911807D3
:103230002F5F3F4F2F7330708091190790911A07BD
:103240002817390759F0E0911707F0911807E9524C
:10325000F94F40833093180720931707FF91EF91A0
:103260009F918F914F913F912F910F900BBE0F9097
:103270000FBE0F901F9018951F920F920FB60F92CE
:103280000BB60F9211242F933F938F939F93EF933D
:10329000FF932091C3053091C4058091C50590919D
:1032A000C6052817390731F48091C1008F7D8093BE
:1032B000C10014C0E091C505F091C605ED57FA4F65
:1032C00020818091C5059091C60501968F739070FD
:1032D0009093C6058093C5052093C600FF91EF919A
:1032E0009F918F913F912F910F900BBE0F900FBE2A
:1032F0000F901F9018951F920F920FB60F920BB65A
:103300000F9211242F933F938F939F93EF93FF93EB
:1033100020914B0630914C0680914D0690914E06BF
:103320002817390731F48091C9008F7D8093C90037
:1033300014C0E0914D06F0914E06E55FF94F2081F3
:1033400080914D0690914E0601968F7390709093E8
:103350004E0680934D062093CE00FF91EF919F91F2
:103360008F913F912F910F900BBE0F900FBE0F903A
:103370001F9018951F920F920FB60F920BB60F92D7
:1033800011242F933F938F939F93EF93FF9320915B
:10339000D3063091D4068091D5069091D606281791
:1033A000390731F48091D1008F7D8093D10014C012
:1033B000E091D506F091D606ED56F94F2081809127
:1033C000D5069091D60601968F7390709093D6068D
:1033D0008093D5062093D600FF91EF919F918F9116
:1033E0003F912F910F900BBE0F900FBE0F901F902B
:1033F00018951F920F920FB60F920BB60F921124D1
:103400002F933F938F939F93EF93FF9320915B07AD
:1034100030915C0780915D0790915E07281739070E
:1034200031F4809131018F7D8093310114C0E0919E
:103430005D07F0915E07E55EF84F208180915D07A2
:1034400090915E0701968F73907090935E078093C2
:103450005D0720933601FF91EF919F918F913F91EE
:103460002F910F900BBE0F900FBE0F901F901895CD
:10347000AF92BF92DF92EF92FF920F931F93CF9381
:10348000DF93EC017A018B01DD24403081EE580797
:1034900080E0680780E0780711F0DD24D39491E0A4
:1034A000A92EB12CEC89FD89DD2069F0C5010E8CB7
:1034B00002C0880F991F0A94E2F7808360E079E0E8
:1034C0008DE390E005C0108260E874E88EE190E042
:1034D000A80197010E94D52621503040404050401D
:1034E000569547953795279580E12030380720F08D
:1034F000DD2011F0DD24D6CFE889F9893083EA890F
:10350000FB892083EE89FF89408121E030E0C901F9
:103510000A8C02C0880F991F0A94E2F7482B408357
:10352000EE89FF894081C9010B8C02C0880F991F69
:103530000A94E2F7482B4083EE89FF894081C90154
:103540000C8C02C0880F991F0A94E2F7482B408325
:10355000EE89FF8980810D8C02C0220F331F0A94EF
:10356000E2F7209528232083DF91CF911F910F91BF
:10357000FF90EF90DF90BF90AF900895CF93DF93CF
:10358000DC011E968D919C911F97EC01C05CDF4F72
:10359000FC01EE5BFF4F28813981808191812817E2
:1035A0003907C9F75696ED91FC915797408121E074
:1035B00030E0C9015A960C905A9702C0880F991FA3
:1035C0000A94E2F78095842380835696ED91FC91CE
:1035D00057974081C9015B960C905B9702C0880F9A
:1035E000991F0A94E2F78095842380835696ED9183
:1035F000FC9157974081C9015C960C905C9702C082
:10360000880F991F0A94E2F7809584238083569649
:10361000ED91FC91579780815D960C905D9702C06B
:10362000220F331F0A94E2F72095282320831C964B
:10363000ED91FC911D97EE5BFF4F808191819293FC
:103640008293DF91CF910895DC011C96ED91FC915E
:103650001D97E05CFF4F2191319180819181281B62
:10366000390B2F733070C9010895DC011C96ED9160
:10367000FC911D97E05CFF4F20813181E054F040C8
:10368000DF01AE5BBF4F8D919C91119728173907D1
:1036900019F42FEF3FEF07C08D919C91E80FF91FB0
:1036A0008081282F30E0C9010895DC011C96ED913E
:1036B000FC911D97E05CFF4F20813181E054F04088
:1036C000DF01AE5BBF4F8D919C9111972817390791
:1036D00019F42FEF3FEF10C08D919C911197E80FD7
:1036E000F91F20818D919C91119701968F73907095
:1036F00011969C938E9330E0C9010895FC01868554
:103700009785DC01A05CBF4FFC01EE5BFF4F2D9164
:103710003C9111978081918128173907C1F708954D
:10372000CF93DF93EC01EE85FF85E05CFF4F2081B6
:103730003181E054F0402F5F3F4F2F733070DF0135
:10374000AE5BBF4F8D919C91119728173907D1F32C
:10375000E05CFF4F80819181E054F040E80FF91F59
:103760006083EE85FF85E05CFF4F31832083EE8927
:10377000FF89208181E090E00D8C02C0880F991FA5
:103780000A94E2F7282B208381E090E0DF91CF912B
:1037900008951F93109262071092610728EE33E09C
:1037A00040E050E02093630730936407409365073F
:1037B0005093660769EF73E07093600760935F074B
:1037C0008FE395E090936C0780936B0783E895E017
:1037D00090936E0780936D0785EC90E0909370074F
:1037E00080936F0784EC90E0909372078093710749
:1037F00080EC90E0909374078093730781EC90E0E5
:10380000909376078093750786EC90E09093780705
:103810008093770714E010937907B3E0B0937A07A9
:10382000A7E0A0937B07F5E0F0937C07E1E0E0934D
:103830007D071092810710928007209382073093B2
:103840008307409384075093850770937F076093A5
:103850007E0787EC95E090938B0780938A078BE037
:1038600096E090938D0780938C078DEC90E0909379
:103870008F0780938E078CEC90E090939107809354
:10388000900788EC90E0909393078093920789ECDF
:1038900090E090939507809394078EEC90E090933E
:1038A00097078093960710939807B0939907A09372
:1038B0009A07F0939B07E0939C071092A007109241
:1038C0009F072093A1073093A2074093A30750932B
:1038D000A40770939E0760939D078FE496E09093F2
:1038E000AA078093A90783E996E09093AC07809399
:1038F000AB0785ED90E09093AE078093AD0784ED24
:1039000090E09093B0078093AF0780ED90E09093A4
:10391000B2078093B10781ED90E09093B407809354
:10392000B30786ED90E09093B6078093B5071093A8
:10393000B707B093B807A093B907F093BA07E0931D
:10394000BB071092BF071092BE072093C0073093A9
:10395000C1074093C2075093C3077093BD0760939C
:10396000BC0787ED96E09093C9078093C8078BE169
:1039700097E09093CB078093CA0785E391E09093FB
:10398000CD078093CC0784E391E09093CF07809399
:10399000CE0780E391E09093D1078093D00781E335
:1039A00091E09093D3078093D20786E391E09093C0
:1039B000D5078093D4071093D607B093D707A09369
:1039C000D807F093D907E093DA071F910895089577
:1039D000CF92DF92EF92FF920F931F93CF93DF93DB
:1039E0007C016B018A01C0E0D0E00FC0D6016D916F
:1039F0006D01D701ED91FC910190F081E02DC7019F
:103A00001995C80FD91F015010400115110571F704
:103A1000CE01DF91CF911F910F91FF90EF90DF903A
:103A2000CF900895EF92FF920F931F938C01DC01CA
:103A3000ED91FC910190F081E02D6DE019957C01F4
:103A4000D801ED91FC910190F081E02DC8016AE070
:103A500019959C012E0D3F1DC9011F910F91FF90DB
:103A6000EF900895CF93DF93DB010D900020E9F7ED
:103A70001197A61BB70BEC01E881F9810280F38155
:103A8000E02DAD011995DF91CF9108954F925F928E
:103A90007F928F929F92AF92BF92CF92DF92EF92DE
:103AA000FF920F931F93DF93CF93CDB7DEB7A1970C
:103AB0000FB6F894DEBF0FBECDBF2C01742ECB0124
:103AC000223008F42AE019A231E2C32ED12CCC0E08
:103AD000DD1E822E9924AA24BB24672D752FA501F3
:103AE00094010E94D52679018A01C801B701A50178
:103AF00094010E948F26472D461B0894C108D108C7
:103B00004A3014F4405D01C0495CF6014083E11481
:103B1000F1040105110521F07E2C5F2DC801DDCFD8
:103B2000C201B6010E94321DA1960FB6F894DEBF05
:103B30000FBECDBFCF91DF911F910F91FF90EF90FE
:103B4000DF90CF90BF90AF909F908F907F905F90CD
:103B50004F900895DC012115310541F4ED91FC9160
:103B60000190F081E02D642F199508950E94461D63
:103B70000895EF92FF920F931F939A01E62EFF2470
:103B800000E010E0B801A7010E94AA1D1F910F914B
:103B9000FF90EF900895CF92DF92EF92FF920F93F4
:103BA0001F936C01E62E9A01FF2400E010E0B8019B
:103BB000A7010E94AA1D8C01C6010E94121D080FB8
:103BC000191FC8011F910F91FF90EF90DF90CF90C8
:103BD0000895CF92DF92EF92FF920F931F93CF93AE
:103BE000DF93EC016A017B012115310541F4E88185
:103BF000F9810190F081E02D642F19951FC02A30C2
:103C00003105D1F477FF17C0E881F9810190F08187
:103C1000E02D6DE219958C0144275527BA014C1906
:103C20005D096E097F09CE012AE00E94461D9801B8
:103C3000280F391F04C02AE00E94461D9C01C901BB
:103C4000DF91CF911F910F91FF90EF90DF90CF9078
:103C50000895EF92FF920F931F937B019A01002723
:103C6000F7FC0095102FB801A7010E94E91D1F91D4
:103C70000F91FF90EF9008950E94321D0895EF92EA
:103C8000FF920F931F937C010E94321D8C01C7018C
:103C90000E94121D080F191FC8011F910F91FF905C
:103CA000EF900895FC011382128289E094E09183E1
:103CB00080837583648357834683718760875387C6
:103CC0004287158A158614861786168621E0248B6E
:103CD0008FEF9FEF938B828B918B808B268B089538
:103CE0002F923F924F925F926F927F928F929F920C
:103CF000AF92BF92CF92DF92EF92FF920F931F93FA
:103D0000DF93CF93CDB7DEB728970FB6F894DEBF19
:103D10000FBECDBF98878F831B012A0179015801FF
:103D200021E030E02E193F093E832D83C701880F23
:103D3000991FAA27BB27A81BB90BBA83A983AF81F8
:103D4000B885ED91FC911197A701440D551D048094
:103D5000F581E02DCD0198011995AF81B885ED91E0
:103D6000FC911197A2014E195F090480F581E02DA5
:103D7000CD01B10198011995AF81B885ED91FC9104
:103D80001197B701620D731D0480F581E02DCD01FF
:103D9000A20198011995AF81B885ED91FC91119719
:103DA000B1016E197F090480F581E02DCD01A201DA
:103DB000980119953701E1E0F0E0FC83EB8388245A
:103DC00099249EC02D813E8137FD0CC00894610866
:103DD000710889819A8102969A838983280F391FF5
:103DE0003E832D830894811C911CAB81BC8112966B
:103DF000BC83AB83ED81FE81EA0FFB1FFE83ED8365
:103E00006401C20CD31C8301040D151DAF81B8855C
:103E1000ED91FC9111970480F581E02DCD01B60163
:103E2000A801950119957101E818F908AF81B885C5
:103E3000ED91FC9111970480F581E02DCD01B70142
:103E4000A80195011995820106191709AF81B88556
:103E5000ED91FC9111970480F581E02DCD01B60123
:103E6000A80195011995AF81B885ED91FC91119745
:103E70000480F581E02DCD01B701A80195011995C8
:103E80006301C20CD31C8401040D151DAF81B885DC
:103E9000ED91FC9111970480F581E02DCD01B601E3
:103EA000A801950119957101E618F708AF81B88549
:103EB000ED91FC9111970480F581E02DCD01B701C2
:103EC000A80195011995820108191909AF81B885D2
:103ED000ED91FC9111970480F581E02DCD01B601A3
:103EE000A80195011995AF81B885ED91FC911197C5
:103EF0000480F581E02DCD01B701A8019501199548
:103F0000861497040CF45ECF28960FB6F894DEBFA3
:103F10000FBECDBFCF91DF911F910F91FF90EF901A
:103F2000DF90CF90BF90AF909F908F907F906F90D9
:103F30005F904F903F902F9008952F923F924F9215
:103F40005F926F927F928F929F92AF92BF92CF9229
:103F5000DF92EF92FF920F931F93DF93CF9300D0E6
:103F60000F92CDB7DEB73C017C836B836A015901A8
:103F7000FA82E982222433249801241B350B37FF6F
:103F800003C0309521953F4FC5014B815C81841B57
:103F9000950B97FF03C0909581959F4F82179307CC
:103FA0005CF481E0282E312CC601CB80DC809C8320
:103FB0008B83C80185015C018B819C81A816B906A1
:103FC00044F4C501AB80BC809C838B83C80186010F
:103FD0006C012501AB81BC814A1A5B0A7801EC189F
:103FE000FD08F7FE04C0F094E194F108F394C016C4
:103FF000D10624F088248A94982C03C0B1E08B2E3B
:10400000912CC20162E070E00E94C2268B0125C0A3
:10401000D301ED91FC912114310441F00480F5812C
:10402000E02DC301B6014B815C8107C00480F5819E
:10403000E02DC3016B817C81A60129813A8119950C
:104040000E191F0917FF04C0C80CD91C040D151D3B
:10405000EB81FC813196FC83EB834B815C81A41660
:10406000B506B4F60F900F900F900F90CF91DF919F
:104070001F910F91FF90EF90DF90CF90BF90AF9086
:104080009F908F907F906F905F904F903F902F9078
:1040900008954F925F926F927F928F929F92AF920C
:1040A000BF92CF92DF92EF92FF920F931F936C011A
:1040B0005B014A0139012801DC01ED91FC91028488
:1040C000F385E02D87011995D601ED91FC91A401AE
:1040D00041505040440D551D0284F385E02DC6012A
:1040E000B50193011995D601ED91FC910084F185FC
:1040F000E02DC601B501A40192011995D601ED91FB
:10410000FC910894A108B108A60CB71C0084F185A5
:10411000E02DC601B501A401920119951F910F91DF
:10412000FF90EF90DF90CF90BF90AF909F908F90D7
:104130007F906F905F904F900895CF92DF92EF92B3
:10414000FF920F931F93DC016B017801ED91FC91BD
:104150008A0101501040020F131F0680F781E02DE5
:10416000960119951F910F91FF90EF90DF90CF90DE
:104170000895CF92DF92EF92FF920F931F93DC018D
:104180006A01C9017801ED91FC9111979B012150C1
:104190003040280F391F0680F781E02DCD018601C0
:1041A00019951F910F91FF90EF90DF90CF90089598
:1041B0006F927F928F929F92AF92BF92CF92DF9237
:1041C000EF92FF920F931F93CF93DF935C013A011D
:1041D00069014801EB01C60ED71E0DC0D501ED9156
:1041E000FC910084F185E02DC501BE01A30194017D
:1041F000870119952196CC15DD0584F3DF91CF91C8
:104200001F910F91FF90EF90DF90CF90BF90AF90F4
:104210009F908F907F906F900895EF92FF920F93F1
:104220001F93FC017B01A081B1812085318502852E
:1042300013851E960D90BC91A02D60E070E040E0CB
:1042400050E0FD0119951F910F91FF90EF90089597
:104250002F923F924F925F926F927F928F929F9296
:10426000AF92BF92CF92DF92EF92FF920F931F9384
:10427000DF93CF93CDB7DEB72F970FB6F894DEBF9D
:104280000FBECDBF5C015E834D8318870F83FA8616
:10429000E986CB86DC0118968D919C911997681759
:1042A00079070CF0A4C01A968D919C911B97481722
:1042B00059070CF09CC0EC2DF0E0FF87EE87CF0192
:1042C000880F991F8E0F9F1F880F991F860F971FAA
:1042D000181619060CF08BC0CF01F3E0880F991F58
:1042E000FA95E1F7840F951F181619060CF07FC098
:1042F00085E0289FA00111245A8349832B011B01CB
:104300001C825C81553011F480E005C0E981FA819E
:10431000EC5FFD4F84912C863D866D807E8043014D
:104320001B82C82EDD2480FF1CC0D501ED91FC91BD
:10433000BB85B13049F40480F581E02DC501B2019F
:10434000A3012F81388522C00684F785E02DC501A1
:104350006C857D85A4012E853F858901EF80F884D9
:1043600023C0E985FA852F813885E217F307E9F044
:10437000D501ED91FC91BB85B13051F40480F581FC
:10438000E02DC501B201A30129853A8519950DC01B
:104390000684F785E02DC5016C857D85A4012E85F9
:1043A0003F858901E984FA841995EB81EF5FEB83FE
:1043B0002E853F85820E931E0894611C711CE83087
:1043C00021F0D594C7948C2DACCF3C813F5F3C83CA
:1043D0004E855F85240E351E0894411C511C898131
:1043E0009A8101969A838983363009F08ACF2F9675
:1043F0000FB6F894DEBF0FBECDBFCF91DF911F91F6
:104400000F91FF90EF90DF90CF90BF90AF909F9073
:104410008F907F906F905F904F903F902F90089576
:10442000CF92EF92FF920F931F93CF93DF93EC0104
:10443000262F6A3061F42C8930E003E0220F331F0D
:104440000A95E1F78E859F85820F931F37C06D30E7
:10445000C9F16C857D854E855F8508891989EA8853
:10446000FB88CC880E9428212C8986E0289FB001F7
:1044700011248C859D85680F791F7D876C878E89B7
:10448000882301F1422F50E08AEF9FEF9C01429F69
:10449000C001439F900D529F900D112428853985AE
:1044A000820F931F861797076CF413E0440F551F74
:1044B0001A95E1F78E859F85840F951F9F878E87BC
:1044C0001D861C8681E090E0DF91CF911F910F91B6
:1044D000FF90EF90CF900895FC0175876487578710
:1044E00046870895FC01662309F461E0648B089512
:1044F000FC01718B608B538B428B0895FC01668BA2
:1045000008950895DC0158968C915897882329F0D6
:104510006EBD0DB407FEFDCF089530E840E050E0D9
:1045200070E0832F90E0862397235996ED91FC91BC
:104530005A9796962C919697892B21F08081822B01
:10454000808304C080812095282320835B96ED9191
:10455000FC915C97808197969C919797892B80839B
:104560005B96ED91FC915C97908197968C919797D3
:1045700080958923808336954F5F5F4F4830510582
:1045800081F608950F931F938C01DC015F96ED91E6
:10459000FC919097908199968C9199978095892319
:1045A00080835D96ED91FC915E97908198968C91B9
:1045B000809589238083C8010E948222D8015D965C
:1045C000ED91FC915E97808198969C91892B8083D8
:1045D0001F910F9108950F931F938C01DC015F963B
:1045E000ED91FC919097808199969C919997892B58
:1045F00080835D96ED91FC915E97908198968C9169
:10460000809589238083C8010E948222D8015D960B
:10461000ED91FC915E97808198969C91892B808387
:104620001F910F910895CF92DF92EF92FF920F9317
:104630001F937C01162FC42ED22E6AE20E94C22242
:10464000C70160E00E94EB22F70162A5610FC7017C
:104650000E94EB22C70160E00E94EB22F70162A5F5
:104660006D0DC7010E94EB22C7016BE20E94C222BE
:10467000C70160E00E94EB22F70163A56C0DC70142
:104680000E94EB22C70160E00E94EB22F70163A5C4
:10469000600FC7010E94EB22C7016CE20E94C22298
:1046A0001F910F91FF90EF90DF90CF900895FF92B0
:1046B0000F931F93CF93DF93EC01F22E132F77FD0F
:1046C0002EC088859985681779074CF557FD27C056
:1046D0008A859B854817590714F5262F2F5F042FCD
:1046E0000F5FCE010E941323EF8DF8A1808199A561
:1046F000892B8083ED8DFE8D908188A580958923FF
:104700008083CE01612F0E948222CE016F2D0E94F4
:104710008222ED8DFE8D808198A5892B8083DF918B
:10472000CF911F910F91FF900895DF92EF92FF922A
:104730000F931F93CF93DF93EC01FB017901D02EF0
:104740008885998568177907D4F52A853B854217AE
:104750005307ACF5C701840F951F281739071CF4C0
:104760007901E41AF50A042F01500E0DCE016E2FC7
:104770002E2F0E941323EF8DF8A1808199A5892BFC
:104780008083ED8DFE8D908188A58095892380831F
:1047900008C0CE01612F0E948222CE016D2D0E94A1
:1047A00082220894E108F1088FEFE8168FEFF806EF
:1047B00081F7ED8DFE8D808198A5892B8083DF9117
:1047C000CF911F910F91FF90EF90DF900895DF92AE
:1047D000EF92FF920F931F93CF93DF93EC01FA01B7
:1047E0007901D02E2885398562177307D4F58A851B
:1047F0009B8548175907ACF5C701860F971F2817E7
:1048000039071CF47901E61AF70A262F21502E0DDC
:10481000CE014E2F0E2F0E941323EF8DF8A1808121
:1048200099A5892B8083ED8DFE8D908188A580953B
:104830008923808308C0CE01612F0E948222CE018D
:104840006D2D0E9482220894E108F1088FEFE8168E
:104850008FEFF80681F7ED8DFE8D808198A5892B6D
:104860008083DF91CF911F910F91FF90EF90DF90A8
:104870000895EF92FF920F931F93FC017B01A0819B
:10488000B18120853185028513851E960D90BC91DE
:10489000A02D60E070E040E050E0FD0119951F910F
:1048A0000F91FF90EF900895AF92BF92CF92DF9259
:1048B000EF92FF920F931F93CF93DF936C015901F7
:1048C000E801DC0118962D913C9119976217730746
:1048D0000CF057C01A96ED91FC911B974E175F078D
:1048E0000CF04FC0C501860F971F281739071CF41D
:1048F0005901A61AB70ACE01840F951FE817F907C8
:104900001CF4EF01C41BD50B262F21502A0D042FB8
:1049100001500C0FC6010E941323D6015F96ED9142
:10492000FC919097808199969C919997892B80838F
:104930005D96ED91FC915E97908198968C91809513
:10494000892380838E010EC0C6016F2D0E948222B2
:10495000C6016E2D0E94822221971C161D06A4F30B
:10496000015010401016110614F4E501F6CFD601DF
:104970005D96ED91FC915E97808198969C91892B34
:104980008083DF91CF911F910F91FF90EF90DF9087
:10499000CF90BF90AF90089550E04C7F507033E0BF
:1049A000440F551F3A95E1F730E093E03595279590
:1049B0009A95E1F7422B532B70E0687F7070762F49
:1049C0006627462B572BCA010895662311F460E22F
:1049D00001C061E20E94C2220895AF92BF92CF92BD
:1049E000DF92EF92FF920F931F93CF93DF935C01BF
:1049F000FB01EB012196D49031C08E010F5F1F4F58
:104A0000FE016491C5010E94C22278010894E11C54
:104A1000F11CF801C4900C2D0F77E701102F08C08E
:104A2000FE012196E491C5016E2F0E94EB221150E8
:104A30001123B1F7E701C00FD11DC7FE0EC0FE0163
:104A40008491682F70E06F3F710511F464EF71E09D
:104A5000219680E090E00E948B16DA94DD2069F6C2
:104A6000DF91CF911F910F91FF90EF90DF90CF904A
:104A7000BF90AF9008950F931F93CF93DF93EC01F6
:104A80008B011BA61AA68AA161E00E94461789A184
:104A900061E00E944617E9A14E2F50E0FA01EE5C5A
:104AA000FE4FE491F0E0EE0FFF1FE250FF4F8591C3
:104AB00094919E8F8D8FEAA12E2F30E0F901EE5C4C
:104AC000FE4FE491F0E0EE0FFF1FE250FF4F8591A3
:104AD000949198A38F8F48585E4FFA01849188A7CC
:104AE00028583E4FF901849189A7888D882361F069
:104AF0000E94662680E00E94552681E00E9447269B
:104B000080E00E9450263DC08DA161E00E944617C2
:104B10008CA161E00E944617EDA14E2F50E0FA01F2
:104B2000EE5CFE4FE491F0E0EE0FFF1FE250FF4F0E
:104B3000A591B491BC8FAB8FECA12E2F30E0F90181
:104B4000EE5CFE4FE491F0E0EE0FFF1FE250FF4FEE
:104B5000859194919A8F898F48585E4FFA0194916C
:104B60009FA328583E4FF90184918EA38C91909574
:104B700098239C93E98DFA8D90818EA1809589234D
:104B80008083ED8DFE8D908188A58095892380831B
:104B90008BA1882309F161E00E9446178BA161E097
:104BA0000E94F91764EF71E080E090E00E948B169C
:104BB0008BA160E00E94F91764EF71E080E090E063
:104BC0000E948B168BA161E00E94F91764EF71E0DF
:104BD00080E090E00E948B160115110521F0CE01B6
:104BE000B8010E94ED24DF91CF911F910F9108959C
:104BF0001F93CF93DF93EC01162F6FEF76E00E94A7
:104C00003B25112351F4CE016AE377E00E94ED24A5
:104C100082E08AA781E08BA705C0CE0167E477E038
:104C20000E94ED24CE0164E577E00E94ED2412306D
:104C300041F4CE0166E30E94C222CE0160EC0E94E4
:104C4000EB221F8BDF91CF911F910895DF92EF929E
:104C5000FF920F931F938C01F62EE42ED22E60E864
:104C600070E040EA50E00E94521E81E294E0F801B8
:104C700091838083F1A2E2A2D3A281E0808F15A26A
:104C800014A21F910F91FF90EF90DF900895882359
:104C900019F48CB5806202C08CB58F7D8CBD0895EF
:104CA0009CB5937F982B9CBD08952CB5382F3370FD
:104CB0002C7F322B3CBD2DB590E095958795959531
:104CC000879581702E7F822B8DBD089584E361E0EE
:104CD0000E94461783E361E00E94461785E361E086
:104CE0000E94461784E360E00E94F91783E360E0C6
:104CF0000E94F91785E361E00E94F9178CB5806185
:104D00008CBD8CB580648CBD0895F8940C94FD2600
:104D1000FB01DC0101900D920020E1F70895629FF4
:104D2000D001739FF001829FE00DF11D649FE00DA3
:104D3000F11D929FF00D839FF00D749FF00D659F04
:104D4000F00D9927729FB00DE11DF91F639FB00D03
:104D5000E11DF91FBD01CF0111240895AA1BBB1B42
:104D600051E107C0AA1FBB1FA617B70710F0A61B6B
:104D7000B70B881F991F5A95A9F780959095BC018C
:104D8000CD01089597FB092E07260AD077FD04D0A0
:104D9000E5DF06D000201AF4709561957F4F0895E5
:104DA000F6F7909581959F4F0895A1E21A2EAA1BC0
:104DB000BB1BFD010DC0AA1FBB1FEE1FFF1FA217CB
:104DC000B307E407F50720F0A21BB30BE40BF50BC8
:104DD000661F771F881F991F1A9469F76095709551
:104DE000809590959B01AC01BD01CF010895EE0F18
:0E4DF000FF1F0590F491E02D1994F894FFCF69
:104DFE00596F75206465616C20002064616D616778
:104E0E00652100596F7520616C736F206465616C4C
:104E1E003A0A0020666972652064616D61676521DA
:104E2E000044616D61676520626F6E7573206973F2
:104E3E00206E6F773A0A00596F75206865616C2095
:104E4E003132206865616C746800596F7520666137
:104E5E00696C203A280020706F69736F6E20646150
:104E6E006D616765210020637269746963616C20EE
:104E7E0064616D6167652100596F75206D6973738B
:104E8E0020746865206F70706F6E656E740020629E
:104E9E006C6F6F646C6F73732064616D61676521F5
:104EAE00002064616D616765210A00594F552057D6
:104EBE00494E2100594F55204C4F5345210048452E
:104ECE00414C54483A20002F000A0A0A546865697A
:104EDE00722073746174733A000A62646566656E5B
:104EEE0063653A20000A73646566656E63653A20F1
:104EFE00000A6C75636B3A2000596F7572207374DB
:104F0E006174733A000A49443A20000A64616D6183
:104F1E00676520626F6E75733A20000A6D617820A6
:104F2E006865616C74683A20000A63757272656E0A
:104F3E0074206865616C74683A200043686F6F7303
:104F4E006520616E2061747461636B3A00416E6717
:104F5E00657200436C656176650046696E657373B4
:104F6E0020537472696B6500536C61736800506FE7
:104F7E0069736F6E204172726F77004865616420AD
:104F8E0053686F74005368617270656E204172725F
:104F9E006F770053686F6F740046697265204261C7
:104FAE006C6C0046726F737420426F6C74004865AF
:104FBE00616C0043686F6F7365206120636C617371
:104FCE00733A0057617272696F720041726368655D
:104FDE0072004D61676500FFFF01000100010109CC
:104FEE00000000400000000000901BE81C241B5530
:104FFE001B351B7E1B000000001022E81CE71C9DC9
:10500E001F9D20B9204920D8200D218122000000AB
:10501E00001022E81C57239D1F9523E72349205497
:06502E00243924E52400F2
:00000001FF
